:1000000017EF00F0EA6A080EE96EEF500EE0050EF9
:10001000016E006A002EFED7012EFBD72E0E006E59
:10002000002EFED700D0EF2EF2D733EF00F0F86AA3
:10003000D09EC150C00B0F09C16E070EB46E000EEA
:10004000956E956A8C6A066A010E056E065211E17C
:10005000055080080EE3956A05C08CFF020E076EFE
:10006000FA0E086ECFD7072EFBD7D8900536063686
:06007000EDD7E9D7030003
:020000040030CA
:0E0000000002181E008581000FC00FE00F40A7
:00000001FF
;PIC18F4620
;CRC=B613  CREATED="02-mar.-19 12:45"
