:1000000016EF00F0EA6A080EE96EEF500DE0060EFA
:10001000016E006A002EFED7012EFBD77B0E006E0C
:10002000002EFED7EF2EF3D732EF00F0F86AD09E05
:10003000C150C00B0F09C16E070EB46E000E956E55
:10004000956A8C6A066A010E056E065211E105502A
:1000500080080EE3956A05C08CFF020E076EFA0E4B
:10006000086ED0D7072EFBD7D89005360636EDD7C9
:04007000E9D70300C9
:020000040030CA
:0E00000000C21E1E008781000FC00FE00F40DF
:00000001FF
;PIC18F4620
;CRC=4A53  CREATED="25-feb.-19 16:40"
